:1000000088C00000A6C00000A4C00000EAC3000031
:10001000A0C000009EC000009CC000009AC000006C
:1000200098C0000096C0000094C0000092C000007C
:1000300090C000008EC000008CC000008AC000008C
:1000400088C0000086C0000084C0000082C000009C
:10005000F0C300007EC000007CC000007AC0000039
:1000600078C0000076C0000074C0000072C00000BC
:1000700070C00000C5C300006CC000006AC0000072
:1000800068C0000066C0000064C0000093C30000A8
:1000900060C000005EC000005CC000005AC00000EC
:1000A00058C0000056C0000054C0000052C00000FC
:1000B00050C000004EC000004CC000004AC000000C
:1000C00048C0000046C0000044C0000042C000001C
:1000D00040C000003EC000003CC000003AC000002C
:1000E00038C00000084AD73B3BCE016E84BCBFFD40
:1000F000C12F3D6C74319ABD56833DDA3D00C77FF8
:1001000011BED9E4BB4C3E916BAAAABE0000008090
:100110003F0011241FBECFEFD1E2DEBFCDBF00E014
:100120000CBF13E0A0E0B2E0E8E3F4E100E00BBFB5
:1001300002C007900D92AA31B107D9F723E0AAE1D6
:10014000B3E001C01D92A233B207E1F77FD20C9455
:100150001A0A56CF88E48093B8001092B900089527
:1001600084EA8093BC008091BC008823E4F7089562
:1001700084E98093BC0008958093BB0084E8809359
:10018000BC008091BC008823E4F7089584EC809340
:10019000BC008091BC008823E4F78091BB000895E7
:1001A00084E88093BC008091BC008823E4F78091B0
:1001B000BB00089590911B03981751F010921D03F6
:1001C00010921E0310921F031092200380931B03B2
:1001D000089560912E0370912F03809130039091C8
:1001E000310320E030E040E751EC73D58823A4F0E0
:1001F00060912E0370912F03809130039091310311
:1002000020E030E040E751E421D418162CF081E0E2
:1002100092E049D380E0089560912E0370912F03FE
:10022000809130039091310320E030E040E751E4C9
:1002300050D518162CF489E092E035D381E008956A
:1002400082E192E030D382E008958AB18B7F8AB94F
:100250008BB184608BB9E9E6F0E0808180628083B5
:1002600080818F7E80838DB384608DBB08951092D2
:10027000900084E0809391008CED9BE0909395003A
:1002800080939400E1E7F0E08081816080830895AD
:10029000EAE7F0E080818F778083EFE6F0E080810D
:1002A0008E7F808310928100E1E7F0E080818E7F75
:1002B00080831092910085E083BFF894789483B78F
:1002C0008E7F83BF089580912603909127038D3BF5
:1002D0009240B8F080911A038F5F80931A038330A5
:1002E00038F180912303811108C08DE192E0DBD2C7
:1002F00081E0809323031092000283E080931A032D
:10030000089580911A03882319F0815080931A036D
:1003100080911A0381110CC080912303882341F03E
:1003200083E392E0C0D21092230381E08093000225
:10033000089580E480937C008FE880937A0008958C
:10034000CF93DF93D82FC62F0BDF80ED15DF8D2FD6
:1003500013DF8C2F11DF0CDFDF91CF91089560E860
:1003600087E3EEDF60E488E3EBDF60E28FE1E8DF64
:1003700061E080E2E5DF8FE39CE90197F1F700C0DF
:10038000000008950F931F93CF93DF93C82F8B0125
:10039000D42FE6DE80EDF0DE8C2FEEDEE1DE81EDA7
:1003A000EBDEC0E014C02C2F30E08D2F90E00197E1
:1003B0002817390731F4F4DEF801EC0FF11D8083C2
:1003C00005C0E4DEF801EC0FF11D8083CF5FCD178F
:1003D00050F3CEDEDF91CF911F910F910895CF930F
:1003E000DF931F92CDB7DEB7EAE7F0E08081806847
:1003F000808381E08093810080EC93E69093850078
:1004000080938400EFE6F0E080818160808384E067
:10041000809391008CED9BE09093950080939400E5
:10042000E1E7F0E08081816080832FEF81EE94E04E
:10043000215080409040E1F700C00000109222035C
:1004400010921D0310921E0310921F03109220039E
:1004500010921B0341E0BE016F5F7F4F8AE392DF82
:100460008CE492E020D20F90DF91CF91089560E06C
:100470008BE666DF60E08CE163DF2FEF81EE94E0D6
:10048000215080409040E1F700C00000089581E0D5
:100490008093810020EC33E6309385002093840024
:1004A00080936F000895CF93DF9300D000D0CDB735
:1004B000DEB746E0BE016F5F7F4F8BE363DF89816C
:1004C00090E0982F88272A81822B90932D03809388
:1004D0002C038B8190E0982F88272C81822B90937E
:1004E0002B0380932A038D8190E0982F88272E81FB
:1004F000822B909329038093280326960FB6F894B5
:10050000DEBF0FBECDBFDF91CF9108954F925F92B6
:100510006F927F928F929F92AF92BF92CF92DF9213
:10052000EF92FF9280912C0390912D03892BA9F4D7
:1005300080912A0390912B03892B79F480912803D1
:1005400090912903892B49F410922E0310922F03C6
:1005500010923003109231036CC060912C037091A3
:100560002D03072E000C880B990BDED220E030E023
:1005700040E858E3B9D36B017C0160912A03709184
:100580002B03072E000C880B990BCED220E030E015
:1005900040E858E3A9D34B015C01609128037091B6
:1005A0002903072E000C880B990BBED220E030E007
:1005B00040E858E399D32B013C01A5019401C50102
:1005C000B40192D34B015C01A3019201C301B201BA
:1005D0008BD39B01AC01C501B40172D1ECD34B01AB
:1005E0005C012FE632E143E85AE373D31816CCF4EA
:1005F000C701B6019058A5019401D5D120E030E0A3
:1006000044E353E471D32BED3FE049E450E422D2BC
:1006100060932E0370932F038093300390933103E4
:1006200008C010922E0310922F03109230031092E4
:100630003103FF90EF90DF90CF90BF90AF909F90ED
:100640008F907F906F905F904F900895CF93DF933E
:10065000CDB7DEB7A0970FB6F894DEBF0FBECDBF03
:1006600087E690E00ED165DE02DE11DF73DDEDDDA1
:1006700088E692E018D189E992E015D18FEB92E0FB
:1006800012D181EE92E00FD1F2DE69DE7894809192
:100690002103882319F0A3DE109221038091220305
:1006A000882311F0F5DDF3CF80911C03882379F1C5
:1006B00080911D0390911E03A0911F03B091200310
:1006C0000196A11DB11D80931D0390931E03A0935D
:1006D0001F03B093200310921C0380911D0390917F
:1006E0001E03A0911F03B09120030A97A105B10535
:1006F00070F082EF92E0D7D081E0809322031092D5
:100700001D0310921E0310921F031092200380916C
:100710002503882319F0D7DD109225038091230348
:10072000882371F180912603909127039F938F93E3
:1007300082E193E09F938F931F9280E28F938E01CB
:100740000F5F1F4F1F930F938CD3C801ACD0109233
:100750001D0310921E0310921F031092200310928B
:100760001B032FEF81EE94E0215080409040E1F791
:1007700000C000000FB6F894DEBF0FBECDBF87CF1C
:1007800080912403882309F482CF8091000288237A
:1007900009F47DCF88DEBADE1CDD0CDD1092240367
:1007A0009FEF20E782E0915020408040E1F700C0B9
:1007B00000006DCF1F920F920FB60F9211248F93EE
:1007C0009F938CED9BE0909395008093940081E043
:1007D00080931C039F918F910F900FBE0F901F90DD
:1007E00018951F920F920FB60F9211248F9381E0EC
:1007F000809321038F910F900FBE0F901F9018953B
:100800001F920F920FB60F9211248F939F93809196
:10081000780090917900909327038093260381E0DC
:10082000809325039F918F910F900FBE0F901F9083
:1008300018951F920F920FB60F9211240BB60F92BC
:100840008F939F93EF93FF9380EC93E690938500B3
:100850008093840080912203811108C0EAE7F0E0D0
:1008600080818064808381E080932403FF91EF91F5
:100870009F918F910F900BBE0F900FBE0F901F9006
:1008800018959093C5008093C40088E18093C100BF
:1008900086E08093C20008959091C00095FFFCCF40
:1008A0008093C6000895CF93DF93EC0102C0219698
:1008B000F3DF88818111FBCFDF91CF9108955058EC
:1008C000BB27AA270ED0CBC1BCD130F0C1D120F0BC
:1008D00031F49F3F11F41EF48CC10EF4E095E7FB58
:1008E00082C1E92FCDD180F3BA176207730784075D
:1008F000950718F071F49EF5E5C10EF4E0950B2E06
:10090000BA2FA02D0B01B90190010C01CA01A00161
:100910001124FF27591B99F0593F50F4503E68F1BC
:100920001A16F040A22F232F342F4427585FF3CFFD
:10093000469537952795A795F0405395C9F77EF4CE
:100940001F16BA0B620B730B840BBAF09150A1F017
:10095000FF0FBB1F661F771F881FC2F70EC0BA0F9D
:10096000621F731F841F48F4879577956795B79525
:10097000F7959E3F08F0B3CF9395880F08F099271D
:10098000EE0F9795879508955CD158F080E891E037
:1009900009F49EEF5DD128F040E851E059F45EEF94
:1009A00009C027C18FC1E92FE0786AD168F3092E09
:1009B000052AC1F3261737074807590738F00E2EC6
:1009C00007F8E02569F0E025E0640AC0EF6307F866
:1009D000009407FADB01B9019D01DC01CA01AD01F8
:1009E000EF9347D03CD10AD05F91552331F02BEDE6
:1009F0003FE049E450FD49EC63CF0895DF93DD27E4
:100A0000B92FBF7740E85FE31616170648075B0764
:100A100010F4D92F62D19F938F937F936F9309D254
:100A2000E4EEF0E0E9D01BD12F913F914F915F911F
:100A300067D1DD2349F09058A2EA2AED3FE049EC66
:100A40005FE3D0785D274DDFDF9109C1A8D008F4BE
:100A500081E008950CD003C1FBD040F0F2D030F01B
:100A600021F45F3F19F0BFC051112DC1C2C008D1A0
:100A700098F39923C9F35523B1F3951B550BBB2765
:100A8000AA2762177307840738F09F5F5F4F220F12
:100A9000331F441FAA1FA9F333D00E2E3AF0E0E80B
:100AA00030D091505040E695001CCAF729D0FE2F57
:100AB00027D0660F771F881FBB1F261737074807E9
:100AC000AB07B0E809F0BB0B802DBF01FF2793589F
:100AD0005F4F2AF09E3F510568F085C0F4C05F3F2C
:100AE000ECF3983EDCF3869577956795B795F79587
:100AF0009F5FC9F7880F911D9695879597F908957F
:100B0000E1E0660F771F881FBB1F6217730784071A
:100B1000BA0720F0621B730B840BBA0BEE1F88F729
:100B2000E0950895E89409C097FB3EF49095809570
:100B3000709561957F4F8F4F9F4F9923A9F0F92FA3
:100B400096E9BB279395F695879577956795B79521
:100B5000F111F8CFFAF4BB0F11F460FF1BC06F5F07
:100B60007F4F8F4F9F4F16C0882311F096E911C019
:100B7000772321F09EE8872F762F05C0662371F03A
:100B800096E8862F70E060E02AF09A95660F771F4E
:100B9000881FDAF7880F9695879597F90895990F2A
:100BA0000008550FAA0BE0E8FEEF16161706E80737
:100BB000F907C0F012161306E407F50798F0621B58
:100BC000730B840B950B39F40A2661F0232B242B2D
:100BD000252B21F408950A2609F4A140A6958FEF4C
:100BE000811D811D089597F99F6780E870E060E09E
:100BF00008959FEF80EC0895DF93CF931F930F9399
:100C0000FF92EF92DF927B018C01689405C0DA2E8F
:100C1000EF0176D0FE01E894A5912591359145919B
:100C20005591AEF3EF015DDEFE019701A801DA9464
:100C300079F7DF90EF90FF900F911F91CF91DF91A7
:100C4000089500240A941616170618060906089532
:100C500000240A9412161306140605060895092E98
:100C60000394000C11F4882352F0BB0F40F4BF2B07
:100C700011F460FF04C06F5F7F4F8F4F9F4F089547
:100C800057FD9058440F551F59F05F3F71F047953D
:100C9000880F97FB991F61F09F3F79F08795089522
:100CA000121613061406551FF2CF4695F1DF08C041
:100CB000161617061806991FF1CF8695710561055E
:100CC00008940895E894BB2766277727CB0197F906
:100CD000089565DF08F48FEF08959B01AC0160E093
:100CE00070E080E89FE3B6CE0BD0B9CFAADF28F042
:100CF000AFDF18F0952309F076CF7BCF1124E3CF37
:100D0000BFDFA0F3959FD1F3950F50E0551F629F71
:100D1000F001729FBB27F00DB11D639FAA27F00D54
:100D2000B11DAA1F649F6627B00DA11D661F829F7B
:100D30002227B00DA11D621F739FB00DA11D621F60
:100D4000839FA00D611D221F749F3327A00D611D7D
:100D5000231F849F600D211D822F762F6A2F11245F
:100D60009F5750408AF0E1F088234AF0EE0FFF1FB2
:100D7000BB1F661F771F881F91505040A9F79E3FE9
:100D8000510570F030CF9FCF5F3FECF3983EDCF31E
:100D9000869577956795B795F795E7959F5FC1F726
:100DA000FE2B880F911D9695879597F9089511F45C
:100DB0000EF41FCF41C06CDFD0F39923D9F3CEF3EB
:100DC0009F57550B87FF46D00024A0E640EA9001CC
:100DD00080585695979528F4805C660F771F881F7A
:100DE00020F026173707480730F4621B730B840B7B
:100DF000202931294A2BA6951794079420253125BF
:100E00004A2758F7660F771F881F20F026173707E5
:100E1000480730F4620B730B840B200D311D411D0C
:100E2000A09581F7B901842F9158880F96958795E1
:100E300008959B01AC0158CF9F3F31F0915020F4B1
:100E4000879577956795B795880F911D96958795A6
:100E500097F9089591505040660F771F881FD2F779
:100E600008950F931F93CF93DF93CDB7DEB72E97DF
:100E70000FB6F894DEBF0FBECDBF0E891F89888DD7
:100E8000998D26E02C831A83098397FF02C080E0A6
:100E900090E801979E838D83AE01445E5F4F6A8D1B
:100EA0007B8DCE01019619D04D815E8157FD0AC020
:100EB0002F813885421753070CF49A01F801E20F8D
:100EC000F31F10822E960FB6F894DEBF0FBECDBF73
:100ED000DF91CF911F910F9108952F923F924F92E2
:100EE0005F926F927F928F929F92AF92BF92CF92BA
:100EF000DF92EF92FF920F931F93CF93DF93CDB7C3
:100F0000DEB72B970FB6F894DEBF0FBECDBF6C01D6
:100F10007B018A01FC0117821682838181FFBFC198
:100F2000CE0101963C01F6019381F70193FD859175
:100F300093FF81917F01882309F4ADC1853239F493
:100F400093FD859193FF81917F01853221F4B60154
:100F500090E0D6D1E8CF912C212C312CFFE1F31574
:100F6000D8F08B3279F038F4803279F08332A1F402
:100F7000232D20611DC08D3261F0803369F4232D53
:100F8000216016C0832D8260382EE32DE4603E2E52
:100F90002AC0F32DF8601DC037FC2DC020ED280FAE
:100FA0002A3040F08E32B9F436FC75C1232D20640E
:100FB000322E19C036FE06C08AE0989E200D1124FC
:100FC000922E11C0EAE02E9E200D1124222EF32D28
:100FD000F0623F2E08C08C3621F4832D8068382EB5
:100FE00002C0883641F4F70193FD859193FF81910A
:100FF0007F018111B3CF982F9F7D9554933028F4B2
:101000000C5F1F4F9FE399830DC0833631F0833708
:1010100071F0833509F055C020C0F80180818983C3
:101020000E5F1F4F88248394912C530112C0280116
:10103000F2E04F0E511CF801A080B18036FE03C0D3
:10104000692D70E002C06FEF7FEFC5014ED14C01FA
:101050008201F32DFF773F2E15C0280122E0420EBA
:10106000511CF801A080B18036FE03C0692D70E0EC
:1010700002C06FEF7FEFC5012DD14C01F32DF06859
:101080003F2E820133FC19C0822D90E0881699060C
:10109000A0F4B60180E290E033D12A94F5CFF501B7
:1010A00037FC859137FE81915F01B60190E028D130
:1010B00021102A9421E0821A91088114910479F771
:1010C000E1C0843611F0893639F5F80137FE07C0E2
:1010D00060817181828193810C5F1F4F08C06081A4
:1010E0007181072E000C880B990B0E5F1F4FF32D9B
:1010F000FF763F2E97FF09C090958095709561957A
:101100007F4F8F4F9F4FF0683F2E2AE030E0A301C2
:1011100033D1882E861844C0853731F4232D2F7E95
:10112000B22E2AE030E025C0932D997FB92E8F365C
:10113000C1F018F4883579F0AEC0803719F08837DF
:1011400021F0A9C0E92FE061BE2EB4FE0DC0FB2D39
:10115000F460BF2E09C034FE0AC0292F2660B22ECB
:1011600006C028E030E005C020E130E002C020E108
:1011700032E0F801B7FE07C06081718182819381FE
:101180000C5F1F4F06C06081718180E090E00E5FB0
:101190001F4FA301F1D0882E8618FB2DFF773F2E1D
:1011A00036FE0DC0232D2E7FA22E891458F434FE56
:1011B0000BC032FC09C0832D8E7EA82E05C0B82C32
:1011C000A32C03C0B82C01C0B92CA4FE0FC0FE0193
:1011D000E80DF11D8081803321F49A2D997EA92E8E
:1011E00009C0A2FE06C0B394B39404C08A2D8678C9
:1011F00009F0B394A3FC10C0A0FE06C0B21480F4A2
:10120000280C922C9B180DC0B21458F4B60180E241
:1012100090E076D0B394F8CFB21418F42B1802C033
:10122000982C212CA4FE0FC0B60180E390E068D07A
:10123000A2FE16C0A1FC03C088E790E002C088E5CA
:1012400090E0B6010CC08A2D867851F0A1FE02C054
:101250008BE201C080E2A7FC8DE2B60190E050D0A5
:10126000891430F4B60180E390E04AD09A94F8CF24
:101270008A94F301E80DF11D8081B60190E040D021
:101280008110F6CF222009F44ECEB60180E290E024
:1012900037D02A94F7CFF6018681978102C08FEF6D
:1012A0009FEF2B960FB6F894DEBF0FBECDBFDF9138
:1012B000CF911F910F91FF90EF90DF90CF90BF9053
:1012C000AF909F908F907F906F905F904F903F90E6
:1012D0002F900895FC010590615070400110D8F7DF
:1012E000809590958E0F9F1F0895FC01615070406E
:1012F00001900110D8F7809590958E0F9F1F08954B
:101300000F931F93CF93DF93FB01238121FD03C034
:101310008FEF9FEF2CC022FF16C04681578124819A
:1013200035814217530744F4A081B1819D012F5F9D
:101330003F4F318320838C93268137812F5F3F4F2E
:101340003783268314C08B01EC01FB010084F185F7
:10135000E02D1995892BE1F6D80116968D919C9177
:101360001797019617969C938E931697CE01DF914F
:10137000CF911F910F910895FA01AA27283051F1BA
:10138000203181F1E8946F936E7F6E5F7F4F8F4FB6
:101390009F4FAF4FB1E03ED0B4E03CD0670F781F15
:1013A000891F9A1FA11D680F791F8A1F911DA11DFA
:1013B0006A0F711D811D911DA11D20D009F4689433
:1013C0003F912AE0269F11243019305D3193DEF6DB
:1013D000CF010895462F4770405D4193B3E00FD091
:1013E000C9F7F6CF462F4F70405D4A3318F0495D7C
:1013F00031FD4052419302D0A9F7EACFB4E0A6955F
:101400009795879577956795BA95C9F70097610580
:10141000710508959B01AC010A2E069457954795D6
:1014200037952795BA95C9F7620F731F841F951FCB
:08143000A01D0895F894FFCF00
:101438000163656E74726F0A006465726563686142
:101448000A00697A717569657264610A003E3E3EF8
:1014580020454D4720414354495641444F203C3C88
:101468003C0A003E3E3E20454D47204445534143FB
:1014780054495641444F203C3C3C0A003E3E3E20E5
:1014880053495354454D41204445535045525441C6
:10149800444F203C3C3C0A003D3D3D205369737459
:1014A800656D6120454D47202B204769726F736336
:1014B8006F70696F20636F6E204D6F646F20536C7F
:1014C800656570203D3D3D0A00454D4720746965BE
:1014D8006E65207072696F726964616420736F62EF
:1014E8007265206769726F73636F70696F0A005362
:1014F8006C65657020747261732031302073656784
:1015080020646520696E6163746976696461640A40
:101518000053697374656D61206C6973746F210A77
:101528000A003E3E3E20454E5452414E444F20450F
:101538004E204D4F444F20534C454550203C3C3C99
:0A1548000A00454D473A25750A00D8
:00000001FF
